:100000000C944C010C9474010C9474010C947401C4
:100010000C9474010C9474010C9474010C9474018C
:100020000C9474010C9474010C9474010C9474017C
:100030000C9474010C9474010C9474010C9474016C
:100040000C9409300C9474010C944C2B0C947E2B62
:100050000C9474010C9474010C9474010C9474014C
:100060000C9474010C947401504120506F776572A8
:1000700009203D2025530D0A00435243204C656E54
:1000800067746809203D2025530D0A004D6F646593
:100090006C0909203D2025530D0A0044617461203C
:1000A0005261746509203D2025530D0A0044594EC4
:1000B00050442F4645415455524500434F4E464902
:1000C000470052465F53455455500052465F4348DF
:1000D00000454E5F52584144445200454E5F4141F5
:1000E0000052585F50575F50302D360054585F41D2
:1000F0004444520052585F414444525F50322D35BF
:100100000052585F414444525F50302D31000D0A77
:1001100000253032780020307800255309256320EF
:100120003D000D0A00203078253032780025530933
:100130002563203D004F4253455256455F54583D7C
:10014000253032783A20504F4C535F434E543D2572
:1001500078204152435F434E543D25780D0A0053A9
:1001600054415455530909203D20307825303278C8
:100170002052585F44523D25782054585F44533DE7
:100180002578204D41585F52543D25782052585FC4
:10019000505F4E4F3D25782054585F46554C4C3D9E
:1001A00025780D0A0000010203040511121314152D
:1001B000160A0B0C0D0E0FD501CE01C701BF015061
:1001C000415F48494748004C415F4D45440050411C
:1001D0005F4C4F570050415F4D494E00F101EA011D
:1001E000E2013136206269747300382062697473E9
:1001F0000044697361626C6564000802FE016E521E
:100200004632344C30312B006E524632344C303151
:100210000025021F0217023235304B425053003284
:100220004D42505300314D42505300000000080031
:1002300002010000030407000000000000000001AC
:10024000020408102040800102040810200102046A
:10025000081020040404040404040402020202023C
:100260000203030303030300000000230026002908
:100270000000000000250028002B000000000024E2
:100280000027002A0000600430208920AD248E263B
:100290002428FA29AE2B5C2C11241FBECFEFD8E006
:1002A000DEBFCDBF13E0A0E0B1E0ECEEF9E602C0A6
:1002B00005900D92A431B107D9F726E0A4E1B3E08F
:1002C00001C01D92A13BB207E1F712E0C8E9D2E0FC
:1002D00004C02297FE010E940832C638D107C9F730
:1002E0000E94FA2F0C94F4340C940000FC018485D5
:1002F00083FF0DC084A195A1A6A1B7A1448D558D02
:10030000668D778D841B950BA60BB70B03C080E021
:1003100090E0DC01811520E89207A105B10520F0ED
:100320008FEF9FE7A0E0B0E008950C960C947E0E4E
:100330000C960C949E0D0C960C94C30BCF93DF93EC
:100340001F92CDB7DEB741E050E0BE016F5F7F4F37
:100350000C960E947F0A019719F4898190E002C0EF
:100360008FEF9FEF0F90DF91CF910895895B9D4FA5
:100370000C94C618895B9D4F0C942D19CF93DF9375
:100380001F92CDB7DEB7698341E050E0BE016F5FD9
:100390007F4F0C960E947E0E0F90DF91CF910895B3
:1003A000EF92FF920F931F936EE171E081E096E070
:1003B0000E94D02C84E995E00E94520960E070E030
:1003C00084E995E00E94FE0863E070E084E995E02E
:1003D0000E94DB0864E684E995E00E94190762E068
:1003E00070E084E995E00E9436094FE06FE084E90F
:1003F00095E00E94B00901EE10EF20EF30EF40EFE2
:1004000050E060E070E084E995E00E942F0882ED02
:10041000E82E90EFF92E00EF20EF30E040E050E0C2
:1004200061E084E995E00E946B0884E995E00E9410
:1004300020076CE271E081E096E01F910F91FF9040
:10044000EF900C94D02CCF92DF92EF92FF920F930B
:100450001F93CF93DF93CDB7DEB7AC970FB6F89469
:10046000DEBF0FBECDBF7C016B011D861E861C82C8
:100470001B8288EE93E0A0E0B0E08D839E83AF8383
:10048000B88787E992E09A83898321E0AB016CE623
:1004900075E0CE010D960E94F90D80E2FE013D96B9
:1004A000A5E2B3E001900D928A95E1F78B819C81E2
:1004B00090931C0380931B038D819E81AF81B8852F
:1004C00080931D0390931E03A0931F03B0932003FA
:1004D00009851A852B853C850093210310932203FF
:1004E000209323033093240368E371E081E096E0D6
:1004F0000E94A12CB60181E096E00E94A12C65E447
:1005000071E081E096E00E94D02C80912503882341
:1005100059F189E193E00E9476018C01009751F135
:10052000013081E0180744F080E091E00E940C3235
:100530006C0100E011E004C0C8010E940C326C01A3
:10054000A801B60185E293E00E947F0AD701ED91F0
:10055000FC910280F381E02DA801B601C701099545
:10056000C6010E94A432D5CF67E471E081E096E035
:100570000E94D02CAC960FB6F894DEBF0FBECDBF54
:10058000DF91CF911F910F91FF90EF90DF90CF906F
:100590000895BF92CF92DF92EF92FF920F931F9335
:1005A000CF93DF93CDB7DEB72C970FB6F894DEBFAD
:1005B0000FBECDBF6C0169E571E081E096E00E945D
:1005C000D02C68E771E0CE0107960E94D42D0BE095
:1005D00011E0F801E080F12C3197B080BE01695F35
:1005E0007F4FCE0101960E94012E6B2DCE01019608
:1005F0000E94FD2E6AE671E00E94E32EB7010E9480
:100600000B2F7C016CE671E00E944E2EB701CE01EB
:1006100007960E94EA2DCE0101960E94662D0E5F7C
:100620001F4FF1E003311F07A1F66EE671E0CE0126
:1006300001960E94D42DBE01695F7F4FCE010196C5
:100640000E94D02EBC0181E096E00E94BE2CCE011B
:1006500001960E94662DBE01695F7F4FC6010E9410
:10066000BE2CCE0107960E94662D2C960FB6F894EC
:10067000DEBF0FBECDBFDF91CF911F910F91FF90D5
:10068000EF90DF90CF90BF9008951F93CF93DF93AB
:10069000182FEB0184E995E00E9456071093180388
:1006A000D0931503C093140345E064E173E084E93B
:1006B00095E00E94DE0784E995E0DF91CF911F91DC
:1006C0000C9420071F93CF93DF93CB01FB01648130
:1006D0007581615071090E94492F992787FD909576
:1006E00089589E4F0E94FD33EC0169E771E081E07B
:1006F00096E00E94A12C4AE050E06C2F81E096E049
:100700000E944F2DFE01FF27EE0FFF1FE65FFE4FF9
:1007100080819181C33051F0992311F060E001C0D4
:1007200061E0DF91CF911F910C94513165E170E050
:1007300081E08927DF91CF911F910C944503AF92FF
:10074000BF92CF92DF92EF92FF920F931F93CF93BE
:10075000DF93CDB7DEB727970FB6F894DEBF0FBE95
:10076000CDBF7C018B0195E0C92ED12C80E2B8165B
:1007700079F0AA24A394A90EB601C8010E94492FBA
:10078000B82E682F81E096E00E94A32C9A2DECCF22
:1007900045E050E060E070E0C8010E946B2FB601B8
:1007A0006550710949E050E0C8010E946B2FB80103
:1007B00081E096E00E94BE2CC8010E94992F68E754
:1007C00071E0C8010E94192F882381F061E871E06F
:1007D000C8010E940A2E6CE871E0C7010E94D02C6B
:1007E00064EA71E0C7010E94D02C49C066EB71E059
:1007F000CE0101960E94D42DBE016F5F7F4FC801CC
:100800000E94672F6C01CE0101960E94662DD7FCD5
:1008100036C06BEB71E0CE0101960E94D42DBE0173
:100820006F5F7F4FC8010E94672F6C01CE01019658
:100830000E94662DD7FC0BC061EC71E081E096E070
:100840000E94D02CB801C7010E94C9021AC062EDF3
:1008500071E0CE0101960E94D42DBE016F5F7F4FE3
:10086000C8010E94672F6C01CE0101960E94662D7F
:10087000CD2839F0B801C7010E94620302C021E00F
:1008800001C020E0C7012F830E94AA2C2F812223C0
:1008900031F0F80160817181C7010E94230227961F
:1008A0000FB6F894DEBF0FBECDBFDF91CF911F9181
:1008B0000F91FF90EF90DF90CF90BF90AF90089591
:1008C000CF92EF920F9300E020E040E060E08EEAEC
:1008D00095E00E94352C60E570E088EA95E00E9482
:1008E000F32632E0C32E47E0E42E06E025E048E0A0
:1008F00063E084E995E00E94FC0610924A0310929E
:100900006C0510926D0589E180938F051092920518
:1009100087EA92E090934603809345031092250363
:100920001092260310921C0310921B0388EE93E092
:10093000A0E0B0E080931D0390931E03A0931F03DB
:10094000B093200387E992E090931A0380931903F0
:100950000F91EF90CF900895CF93DF9300D000D008
:1009600000D0CDB7DEB726E040E855E260E070E0A9
:1009700081E096E00E94EA2A68ED71E081E096E06D
:100980000E94D02C62E171E0CE0101960E94412CC0
:10099000AE014F5F5F4F66E171E089ED95E00E9427
:1009A0005F2488EA95E00E94AF2662E372E081E06E
:1009B00096E00E94D02C22E044E063E975E08CE8E8
:1009C00095E00E9417188823E1F18CE695E00E94DB
:1009D000F00D61E085E493E00E942A16882349F037
:1009E00065E473E08CE695E00E94650A882349F18E
:1009F00008C060E085E493E00E942A168111F0CFE0
:100A000020C080916C058077E1F08CE695E09093B2
:100A1000B7058093B6050E94D0016AE572E081E0D7
:100A200096E00E94D02C61E070E081E00E944503D6
:100A300026960FB6F894DEBF0FBECDBFDF91CF91E3
:100A4000089561E772E081E096E00E94D02CFFCF2C
:100A5000FF920F931F93CF93DF93CDB7DEB76397CA
:100A60000FB6F894DEBF0FBECDBF68EA75E0CE01C9
:100A700001960E94B727CE0101960E94E0248823A8
:100A800009F452C068E771E0CE010E960E94D42DA1
:100A9000F12C11E0CE0101960E946A26882391F183
:100AA000CE0101960E940D25892BA1F3CE0101965E
:100AB0000E941625082FF11005C0682FCE010E9652
:100AC0000E945E2E0A30B9F41123C9F0BE01625FA4
:100AD0007F4F81E096E00E94BE2C63E872E0CE0179
:100AE00001960E94D02CBE01625F7F4FCE0101961D
:100AF0000E949F0307C00D3069F210E0CBCFFF24A6
:100B0000F394C7CF61E070E080E090E00E94823013
:100B100085E293E00E94F00DCE0101960E943026FE
:100B2000CE010E960E94662D63960FB6F894DEBF36
:100B30000FBECDBFDF91CF911F910F91FF90089510
:100B4000FC0185810C945131FC0184810C9451315C
:100B50000F931F93CF93DF93EC01162F08E017FF3D
:100B600002C061E001C060E089810E94513161E012
:100B70008A810E945131110F88810E94873101972B
:100B800009F4116060E08A810E945131015039F707
:100B9000812FDF91CF911F910F910895CF92DF9216
:100BA000EF92FF920F931F93CF93DF9300D0CDB7B7
:100BB000DEB78C01E62EF22E60E070E049835A83A6
:100BC0000E94A0056E2D6F71C8010E94A805E82E35
:100BD0004981C42E5A81D52EF40EFC1441F06FEFDA
:100BE000C8010E94A805F60181936F01F6CF61E06C
:100BF00070E0C8010E94A0058E2D0F900F90DF912C
:100C0000CF911F910F91FF90EF90DF90CF900895BB
:100C10001F93CF93DF93EC01162F60E070E00E94EA
:100C2000A005612F6F71CE010E94A8056FEFCE0164
:100C30000E94A805182F61E070E0CE010E94A00577
:100C4000812FDF91CF911F910895CF92DF92EF9284
:100C5000FF920F931F93CF93DF9300D0CDB7DEB7F2
:100C60008C01E62EF22E60E070E049835A830E94E8
:100C7000A0056E2D6F716062C8010E94A805E82E64
:100C80004981C42E5A81D52EF40EFC1439F0F60198
:100C900061916F01C8010E94A805F7CF61E070E083
:100CA000C8010E94A0058E2D0F900F90DF91CF916B
:100CB0001F910F91FF90EF90DF90CF900895EF92EA
:100CC000FF921F93CF93DF931F92CDB7DEB77C01C6
:100CD000162F60E070E049830E94A005612F6F71BC
:100CE0006062C7010E94A805182F4981642FC701BF
:100CF0000E94A80561E070E0C7010E94A005812F55
:100D00000F90DF91CF911F91FF90EF900895BF92C8
:100D1000CF92DF92EF92FF920F931F93CF93DF93C7
:100D2000EC01D62EB72E1885F42E141708F4F12EE8
:100D30008A85811103C0E12EEF1801C0E12C60E02B
:100D400070E0CE010E94A00560EACE010E94A805D5
:100D5000C82E0D2D1B2DFD0CF01639F0F8016191F8
:100D60008F01CE010E94A805F7CF1E2D112331F06F
:100D700060E0CE010E94A8051150F8CF61E070E05C
:100D8000CE010E94A0058C2DDF91CF911F910F9174
:100D9000FF90EF90DF90CF90BF9008951F93CF9377
:100DA000DF93EC0160E070E00E94A00562EECE01EE
:100DB0000E94A805182F61E070E0CE010E94A005F6
:100DC000812FDF91CF911F9108951F93CF93DF93D0
:100DD000EC0160E070E00E94A00561EECE010E948F
:100DE000A805182F61E070E0CE010E94A005812FB8
:100DF000DF91CF911F910895CF92EF920F93FC0155
:100E000000832183E282C3826483458381E08683F9
:100E1000178280E2808711861286148615861686D0
:100E20001786108A118A128A138A0F91EF90CF9039
:100E30000895462F603808F04FE765E00C945F0690
:100E4000CF93DF93EC0160E00E940806482F4360D7
:100E500060E0CE010E945F0640E767E0CE010E949D
:100E60005F062C853D854E855F85688979898A89ED
:100E70009B89A0E00E94FA3141F025E0AE01445F79
:100E80005F4F6AE0CE010E942506CE010E94CE0689
:100E9000CE010E94E50661E070E0CE010E94A4054B
:100EA00082E890E0DF91CF910C94AA30CF93DF934A
:100EB000EC0160E070E00E94A405CE010E94E5060E
:100EC000CE01DF91CF910C94CE06CF93DF93EC014E
:100ED00060E00E940806482F4D7F60E0CE01DF9160
:100EE000CF910C945F06FF920F931F93CF93DF93E4
:100EF000EC018B01F42E60E00E940806482F4C7F25
:100F0000426060E0CE010E945F0686E990E00E94A8
:100F1000AA304F2DB801CE010E94870661E070E033
:100F2000CE010E94A4058FE090E00E94AA3060E00C
:100F300070E0CE01DF91CF911F910F91FF900C9443
:100F4000A4051F93CF93DF93EC0160E070E00E9453
:100F5000A00560E6CE010E94A8056FEFCE010E94B9
:100F6000A805182F61E070E0CE010E94A005812F36
:100F7000DF91CF911F910895EF92FF920F931F93EE
:100F8000CF93DF93EB018A01790140E767E00E948C
:100F90005F0685FB992790F9988384FB992790F940
:100FA000F801908386FB882780F9F7018083DF9121
:100FB000CF911F910F91FF90EF900895CF92DF9204
:100FC000EF92FF920F931F93CF93DF9300D01F9266
:100FD000CDB7DEB78C010E9473070E9453306B01BE
:100FE0007C0121E0AE014D5F5F4F68E0C8010E94C7
:100FF000CE05807359F40E9453306C197D098E0917
:101000009F09643F71408105910558F39801275F5E
:101010003F4FAE014F5F5F4FBE016E5F7F4FC80114
:101020000E94BC07FA80F8018185882329F0C80155
:101030000E94A107F8018387C8010E946507C801C3
:101040000E94E5068F2D0F900F900F90DF91CF91AA
:101050001F910F91FF90EF90DF90CF900895EF9246
:10106000FF920F931F93CF93DF93CDB7DEB72897EF
:101070000FB6F894DEBF0FBECDBF7C0109831A8383
:101080002B833C834D835E836F83788725E0AE019D
:101090004F5F5F4F6AE00E94250625E0AE014F5F7B
:1010A0005F4F60E1C7010E942506F701408541328C
:1010B00008F040E261E1C7010E945F0628960FB682
:1010C000F894DEBF0FBECDBFDF91CF911F910F917E
:1010D000FF90EF900895BF92CF92DF92EF92FF9230
:1010E0000F931F93CF93DF93CDB7DEB728970FB63B
:1010F000F894DEBF0FBECDBF6C01B62EE982FA8236
:101100000B831C832D833E834F83588761110AC054
:10111000F601E486F58606871787208B318B428B94
:10112000538B07C0F6E0F61708F435C081E068136A
:1011300007C0EB2DF0E0EF54FE4F649125E006C0B0
:10114000E62FF0E0EF54FE4F649121E0AE014F5FD7
:101150005F4FC6010E9425060B2D10E0F801E555F2
:10116000FE4F6491F6014085C6010E945F0662E071
:10117000C6010E940806F801EB55FE4F049121E0DC
:1011800030E001C0220F0A95EAF7822B482F62E077
:10119000C6010E945F0628960FB6F894DEBF0FBE08
:1011A000CDBFDF91CF911F910F91FF90EF90DF9016
:1011B000CF90BF9008950F931F93CF93DF938C012F
:1011C000EB0166E00E940806482F497FC330D10535
:1011D00061F0C230D10511F4446008C0C130D105BE
:1011E00011F4426003C0249709F4466066E0C80128
:1011F000DF91CF911F910F910C945F06EF92FF92B8
:101200000F931F93CF93DF931F92CDB7DEB77C016F
:101210008B0166E00E940806F7011682282F277DC1
:101220000230110511F4206207C00130110521F4CC
:1012300081E0F70186832860422F66E0C701298399
:101240000E945F0666E0C7010E9408062981821796
:1012500021F0F701168280E001C081E00F90DF915C
:10126000CF911F910F91FF90EF9008950F931F93CF
:10127000CF93DF93EC018B0160E00E940806482FBA
:10128000437F0115110531F00130110511F448605B
:1012900001C04C6060E0CE01DF91CF911F910F91B2
:1012A0000C945F06CF93DF93EC0161E08C810E9488
:1012B000183161E08D810E94183160E088810E94C0
:1012C000183160E08B810E94183161E089810E94B1
:1012D000183161E08A810E94183160E070E0CE012F
:1012E0000E94A40561E070E0CE010E94A00565E0C7
:1012F00070E080E090E00E9482304FE464E0CE0134
:101300000E945F0663E070E0CE010E94DB0862E0AD
:1013100070E0CE010E94FE08882311F081E08F83E7
:1013200060E070E0CE010E94FE0862E070E0CE0155
:101330000E94360940E06CE1CE010E945F0640E762
:1013400067E0CE010E945F066CE4CE010E9419079F
:10135000CE010E94CE06CE01DF91CF910C94E5061E
:1013600020E1629FB00111244F70462B64E00C9481
:101370005F06FC018281806882839F01245F3F4F6A
:101380004485558566857785868197810C943B15C4
:101390009F92AF92BF92CF92DF92EF92FF920F9304
:1013A0001F93CF93DF93EC01888185FF02C0912CBE
:1013B0005EC088899989AA89BB8981159E4FAF41F2
:1013C000B105A8F7CE010E94B909982E882379F3B8
:1013D0004C855D856E857F858E819F810E9452142C
:1013E0006B017C018E819F8125E0B701A60180966B
:1013F0000E9410145C010097D1F280E092E0F501A8
:101400009C01119221503040E1F711E0AE81BF8183
:1014100012960C9112971017A0F4ED91FC91119770
:101420000280F381E02D9501B701A601410F511D06
:10143000611D711DCD010995882309F4B8CF1F5F87
:10144000E5CF10E020E030E089E0000F111F221FFF
:10145000331F8A95D1F7488959896A897B89400F5A
:10146000511F621F731F488B598B6A8B7B8B892D91
:10147000DF91CF911F910F91FF90EF90DF90CF9070
:10148000BF90AF909F900895CF93DF93EC01262FEC
:101490004C895D896E897F898E819F8180960E94AB
:1014A00010149C01009761F08C819D818F709927A9
:1014B00045E0880F991F4A95E1F7820F931F02C0FC
:1014C00080E090E0DF91CF910895FC01808181114F
:1014D00014C080E2DF01982F1D929A95E9F7778377
:1014E0006683DB0115969C91903119F0903229F4B6
:1014F00080E4808381E08283089580E008952F92C4
:101500003F924F925F926F927F928F929F92AF9293
:10151000BF92CF92DF92EF92FF920F931F93CF93E0
:10152000DF9300D000D0CDB7DEB79C838B834B0117
:101530007A01DC018C91882309F112969C9190FF2D
:101540001DC027C0D380D822A114B10409F09CC0CB
:10155000D1109AC0452B462B472B09F47EC0AB8196
:10156000BC811C964D915D916D917C911F97298155
:101570003A81CF010E946A1487FF7EC0AB81BC8193
:1015800011968C911197826011968C938FEF9FEF3B
:10159000E3C083FF17C0EB81FC81808D918DA28D0C
:1015A000B38D4089518962897389841B950BA60B81
:1015B000B70BA70160E070E0481759076A077B077F
:1015C000D0F018C085FF17C0AB81BC811696ED9195
:1015D000FC9117978681978155E0880F991F5A953E
:1015E000E1F750962D913C915197821B930B8E15EC
:1015F0009F0508F47C018701EB81FC813C96FA830E
:10160000E983612C42E0742E0115110509F468C0CC
:10161000AB81BC8150964D915D916D917C915397BA
:101620005A01B1E0BB22EB81FC8120810680F78169
:10163000E02DDB01CA0139E0B695A795979587950E
:101640003A95D1F725FF7ECF448D558D668D778DE8
:10165000480F591F6A1F7B1F2BC026FD02C0EB815C
:10166000FC81848D958DA68DB78DEB81FC8184875F
:101670009587A687B78708C0811106C0EB81FC81DA
:101680008081807769F57ACFAB81BC811C964D91C2
:101690005D916D917C911F9716968D919C911797F6
:1016A0000E945214AB01BC014D0D511D611D711DF5
:1016B000EB81FC8186819781A114B104B1F50115FC
:1016C000F2E01F0790F1DC0193962D903D904D9034
:1016D0005C909697421553056405750529F425C05D
:1016E000C701801B910B38C0DC01ED91FC9101908A
:1016F000F081E02D94010995882309F43FCFC12C96
:10170000F2E0DF2E8C0C9D1CEB81FC81808991899D
:10171000A289B3898C0D9D1DA11DB11D808B918B5C
:10172000A28BB38B0C191D096FCF93012A193B09AA
:1017300068012017310708F4690120E080960E94B3
:101740001014009709F41ACFBC016A0D7B1DA60185
:10175000C4010E943034D6CF0F900F900F900F909D
:10176000DF91CF911F910F91FF90EF90DF90CF907D
:10177000BF90AF909F908F907F906F905F904F90B1
:101780003F902F9008958F929F92AF92BF92CF92E9
:10179000DF92EF92FF920F931F93CF93DF931F92ED
:1017A000CDB7DEB78C01FC0180889188A288B38810
:1017B000C484D584E684F78441E050E0BE016F5FC5
:1017C0007F4F0E947F0A019719F4898190E002C03F
:1017D0008FEF9FEF8F3FFFEF9F0749F0F801808A5F
:1017E000918AA28AB38AC486D586E686F7860F9048
:1017F000DF91CF911F910F91FF90EF90DF90CF90ED
:10180000BF90AF909F908F900895FF920F931F937A
:10181000CF93DF931F92CDB7DEB78C01262FFC014B
:101820004089518962897389DB01CA01E5E0B69577
:10183000A79597958795EA95D1F7F82FFF70FF2E1A
:1018400011F0211117C041E050E0BE016F5F7F4FE2
:10185000C8010E947F0A813019F080E090E01CC02E
:10186000F8014089518962897389415E5F4F6F4FEA
:101870007F4F05C0405E5F4F6F4F7F4FF801408B39
:10188000518B628B738BF801868197818796F0E28A
:10189000FF9E800D911D11240F90DF91CF911F911C
:1018A0000F91FF9008954F925F926F927F928F9267
:1018B0009F92AF92BF92CF92DF92EF92FF920F93DF
:1018C0001F93CF93DF93EC016A017B014C845D840D
:1018D0006E847F84A881AA2309F48CC04115510528
:1018E0006105710529F41C861D861E861F867CC035
:1018F000A3FF0BC0488D598D6A8D7B8D4C155D05FE
:101900006E057F0508F476C014C0A5FF12C0EE81F5
:10191000FF8186819781F5E0880F991FFA95E1F79D
:10192000A0E0B0E084179507A607B70708F462C0E7
:101930005BC0088919892A893B89EE81FF818481EE
:1019400090E00996B901A801415051096109710956
:10195000082E04C076956795579547950A94D2F757
:1019600046015701B1E08B1A9108A108B10804C0E3
:10197000B694A794979487948A95D2F7841695067F
:10198000A606B70620F0012B022B032B81F4A6FF3D
:1019900005C0848D958DA68DB78D04C08C8D9D8DD1
:1019A000AE8DBF8D8C879D87AE87BF8704C0841A9C
:1019B000950AA60AB70A8E01045F1F4F811491048D
:1019C000A104B10489F04C855D856E857F85980101
:1019D0008E819F810E946A1491E0891A9108A10862
:1019E000B10818165CF306C0C88AD98AEA8AFB8A4D
:1019F00081E005C04C865D866E867F8680E0DF9143
:101A0000CF911F910F91FF90EF90DF90CF90BF90FB
:101A1000AF909F908F907F906F905F904F900895C0
:101A20008F929F92AF92BF92FF920F931F93CF938B
:101A3000DF93EC01F22E80E2DE011D928A95E9F738
:101A4000FB01868197819F838E835D834C83848C89
:101A5000958CA68CB78C88869986AA86BB86FC0155
:101A6000B7964F705527B5E0440F551FBA95E1F76B
:101A7000E40FF51F338533FF03C0188280E054C0A4
:101A8000377138832385287111F4386038830B83CC
:101A90002F2D227319F02881217179F72F2D2F70A6
:101AA0002A83DC0193964D915D916D917C9196977F
:101AB0004C8B5D8B6E8B7F8B4489558960E070E029
:101AC000BA0155274427028D138D20E030E0402BCA
:101AD000512B622B732BF4FE0AC041155105610591
:101AE0007105E9F00E94DD15811119C0C6CF4C8F38
:101AF0005D8F6E8F7F8F448D558D668D778D488F6E
:101B0000598F6A8F7B8FF5FE0EC0488D598D6A8D77
:101B10007B8DCE010E94530C811105C0AECF8A810E
:101B200080688A83F0CF81E0DF91CF911F910F9180
:101B3000FF90BF90AF909F908F9008950F931F9349
:101B4000CF93DF93EC018881882309F443C08A8115
:101B500087FF38C061E0CE010E94440A8C010097E3
:101B600029F489818160898380E035C0FC0180810E
:101B7000853EB9F3888183FF08C0488D598D6A8DF1
:101B80007B8D448F558F668F778F4C8D5D8D6E8DDD
:101B90007F8DF801538F428F758B648BE091B40574
:101BA000F091B505309759F0B8016A5E7F4FC801D2
:101BB00048960995F801808D918D938B828B8A814F
:101BC0008F778A838E819F8180960E94BD138823A0
:101BD00041F201C081E0DF91CF911F910F910895F3
:101BE000CF93DF93EC010E949E0D1882DF91CF917D
:101BF0000895CF92DF92EF92FF920F931F93CF93AE
:101C0000DF93CDB7DEB7E3970FB6F894DEBF0FBE14
:101C1000CDBF8C017B015BAB4AABD22E19821A82FD
:101C2000FC018081882311F080E059C0FB01808194
:101C30008077D1F3EAA9FBA980818F32D9F4EAA990
:101C4000FBA980818F3221F43196FBABEAABF7CF51
:101C5000F70166817781811104C0C8010E94650A7D
:101C60003EC0CE0101960E94650A8823E9F2CE01AA
:101C700001967C0150E2C52EAE014E5C5F4FBE0165
:101C80006F5D7F4F8AA99BA90E94F00F882361F2A4
:101C9000EAA9FBA980818823D1F021E0AE014F5D44
:101CA0005F4FB701C8010E947111882309F4BCCFAE
:101CB000F801DE0111968C2D01900D928A95E1F7C5
:101CC000C8010E94F00DFE0131967F01D5CF2D2D68
:101CD000AE014F5D5F4FB701C8010E947111E396DD
:101CE0000FB6F894DEBF0FBECDBFDF91CF911F912D
:101CF0000F91FF90EF90DF90CF9008952F923F9239
:101D00004F925F926F927F928F929F92AF92BF920B
:101D1000CF92DF92EF92FF920F931F93CF93DF93B7
:101D2000EC015B014A01888183FF0EC08A8181FF3B
:101D30000BC082FF0FC0488D598D6A8D7B8DCE01FF
:101D40000E94530C811106C08981816089838FEFC5
:101D50009FEF06C1A40160E070E088899989AA8993
:101D6000BB8980959095A095B09584179507A60797
:101D7000B70750F364011E012CE0220E311C488984
:101D800059896A897B89C114D10409F4C7C08E813D
:101D90009F812A013B0129E07694679457944794E8
:101DA0002A95D1F7DC0113961C9114217A01B1E038
:101DB000FB22111134C0E114F10489F54C855D85D5
:101DC0006E857F85411551056105710569F09101A9
:101DD0000E946A1487FDB8CF811121C0CE010E94F4
:101DE000B90981111CC0B0CF8C8D9D8DAE8DBF8D7A
:101DF0000097A105B10579F4CE010E94B9098823A5
:101E000009F4A2CF8C859D85AE85BF858C8F9D8F73
:101E1000AE8FBF8F04C08C879D87AE87BF874C85F0
:101E20005D856E857F858E819F810E945214AB01F6
:101E3000BC01410F511D611D711DEE81FF81E11437
:101E4000F10421F4C11422E0D206B8F580E092E05A
:101E50008E199F0986018C159D0508F48C01E114EB
:101E6000F10479F4488859886A887B88888D998D2F
:101E7000AA8DBB8D481659066A067B0610F025E030
:101E800001C021E0CF0180960E941014009709F450
:101E90005BCFA801B5018E0D9F1D0E943034E00E6E
:101EA000F11EE11482E0F80641F58E819F81809653
:101EB0000E94BD13811121C047CF83A194A1A5A188
:101EC000B6A184179507A607B70741F410A28FEFB4
:101ED0009FEFDC0183A394A3A5A3B6A38E819F816A
:101EE000DC01ED91FC910280F381E02D95010995D3
:101EF000882309F429CF00E012E088899989AA890A
:101F0000BB89800F911FA11DB11D888B998BAA8B56
:101F1000BB8BA00EB11EC01AD10A31CF888D998D0E
:101F2000AA8DBB8D2A8184179507A607B70728F4C9
:101F3000488F598F6A8F7B8F06C08091B40590912E
:101F4000B505892B11F020682A838A8183FD02C0A0
:101F5000C40106C0CE010E949E0D8111F9CFF4CEBE
:101F6000DF91CF911F910F91FF90EF90DF90CF9075
:101F7000BF90AF909F908F907F906F905F904F90A9
:101F80003F902F900895653040F4FC01E60FF11D5D
:101F9000E60FF11D8181928108956B3040F4FC01C0
:101FA000E60FF11DE60FF11D8481958108956131E1
:101FB00040F4FC01E60FF11DE60FF11D86819781CB
:101FC000089580E090E00895FC0190E080E080FBBF
:101FD000879587F92191820F9F5F9B30C1F7089504
:101FE000CF92DF92EF92FF920F931F93CF93DF93E5
:101FF000FB01DC0101962C912032D9F3B483A38339
:10200000ED01BE016A1B7B0B8991811105C0CD01D9
:10201000860F971FEC0118C08F32C9F38C3511F46D
:1020200080E0D0C0982F977F9232D1F38A33C1F3EA
:10203000982F9F7B9C33A1F392EC980F923080F302
:1020400080528F35F0F2ECCF1C2F3D2F299120329A
:10205000D9F32F32C9F3EA0118833983EC016115F2
:10206000710561F08A918E3211F0803219F461505D
:102070007109F5CF6F3F710509F094F672836183A2
:1020800080E090E020E2EF01C80FD91F2E83019677
:102090008B309105C1F7ED01CE018A1B9B0B299175
:1020A0002E32D1F32032C1F351E0009709F050E015
:1020B0009B012150310938F407E010E0C12CF12CCC
:1020C000C8E0EC2E0FC0ED01C20FD31F48814E3285
:1020D00081F7F2CFED01C80FD91F4881403231F4AA
:1020E00050E0019686179707ACF343C04E3221F4B7
:1020F00028173907A9F704C04232A1F04C3791F0F4
:10210000C6EDC40FC63010F44D3261F4C6ECC40FF6
:10211000C63040F0C5EAC40FC33020F0CFEDC40F85
:10212000CE3530F08217930709F150E04FE503C038
:1021300082179307D9F00117D0F1CFE9C40FCA3144
:1021400018F44052FE2805C0CFEBC40FCA3108F482
:10215000CE28DD24D394D10EEF01C10FD11D4E83C3
:1021600046E04D1508F0D5821D2DBBCF0A30C9F4CD
:1021700050E08681803209F453CF552339F0CF20C7
:1021800011F082E001C08F2D808309C081E080833F
:102190008581E80FF11D8EE7868381E3878381E0E7
:1021A00011C0C9010AE018E040E1E42E9ACF0A30DC
:1021B000F9F228173907E4F2C9010AE018E050E102
:1021C000E52E8ECFDF91CF911F910F91FF90EF9071
:1021D000DF90CF900895AF92BF92CF92DF92EF92AF
:1021E000FF920F931F93CF93DF937C01EB01AD80A0
:1021F00002E010E07EE7B72E6E0186E0C80ED11C2B
:1022000089819A819801280F391FEB81FC81AF01E8
:10221000480F591FE417F50779F0C90165E0880FE9
:10222000991F6A95E1F7820F931F2191332727FDAC
:10223000309528273927EECFE3E0EA1510F453E074
:10224000A52E84E08A0D922F9F70E82FF0E09A303F
:1022500010F4905D01C0995CEC0FFD1F968344E083
:10226000369527954A95E1F78150A81660F3FE014F
:10227000EA0DF11DB68240E050E0BA01C7010E94AC
:10228000530C61E0C7010E94050CBC01009731F4BA
:1022900081E0F70191819923C9F017C0FC01808189
:1022A000882359F0838583FDECCF4BE050E0C601D5
:1022B0000E942334892B29F702C081E007C00F5FF9
:1022C0001F4F0436110509F09BCF80E0DF91CF91BD
:1022D0001F910F91FF90EF90DF90CF90BF90AF9044
:1022E00008952F923F924F925F926F927F928F92BA
:1022F0009F92AF92BF92CF92DF92EF92FF920F9395
:102300001F93CF93DF93CDB7DEB72B970FB6F8941B
:10231000DEBF0FBECDBF3C017B876A877A012A836F
:10232000DA0111968D909C901297FB018081807745
:1023300011F480E0F3C1D3018C918111FACFFA013D
:102340008081837009F4E1C1C4010C966DE070E0F6
:102350000E94B03155245394560E40E050E0BA012B
:102360008A859B850E94530C1C821D821982412CF8
:1023700010E000E01B821701B6E02B0E311CAA858D
:10238000BB8550962D913D914D915C91539765E0A1
:1023900056954795379527956A95D1F7590161E08C
:1023A000CD0128873E8349875F830E94050C6C011D
:1023B00028853E81009739F4EA85FB858181882351
:1023C00009F488C0B6CFDC018C91853E11F08111F3
:1023D0000AC0111102C02C833D83151508F41F5F3C
:1023E000811104C077C0151528F005C0853E19F489
:1023F00000E0C5CF10E08E32D9F3F60193859F300F
:1024000009F046C0011108C086FFB9CF082F0F712F
:1024100025852983402E07C04A948411E9CF8585FC
:1024200029812813E5CF842D90E00197ADE0A89F86
:102430005001A99FB00C1124A814B904C8F620E0DB
:10244000622FC60128870E94C30F2885A814B904EB
:1024500019F4892B69F693CF8F3F910509F040F667
:102460003FEB380F3A3108F4805EA5014F5F5F4FB4
:10247000D7011396ED91FC911497EA0DFB1D908105
:102480003FEB390F3A3108F4905E8913B1CF40C168
:1024900093FDAECF002351F0B1E04B124ACFC601FD
:1024A0000E94E40F2981821344CF10C04BE050E01A
:1024B000B101C6010E942334892B09F060CFD701F6
:1024C0008C9180FF03C021E02B8359CF2A8127FF05
:1024D00014C12FCF8A818274823409F02ACF11234C
:1024E00059F0AC80BD8008C060E08A859B850E9461
:1024F000050C892B21F01F5F1515B0F318C0AA85B4
:10250000BB8511968C91882391F013CF8A859B858A
:102510000E94C809882309F40CCFAA85BB851696AA
:10252000ED91FC9117978281823018F4105F151598
:1025300068F32B81222341F0B7018A859B850E9495
:10254000EB10882309F4F5CEA50160E070E025E0EA
:10255000440F551F661F771F2A95D1F78A859B85E3
:102560000E94530C882309F4E4CE0FEF050D102FC1
:102570008FE0482E670186E0C80ED11C9DE0592EE1
:1025800049C060E08A859B850E94050C5C0100972C
:1025900009F4CFCEAA85BB851696ED91FC911797CD
:1025A00080A1816080A3412F101301C04064F50118
:1025B000408343861486C60149870E94E40FD501F3
:1025C0001D968C931D975B961C921E925A97F7014D
:1025D0002381348149854F7150E041505109549E07
:1025E000C001559E900D1124F50160E088159905F4
:1025F000A0F4D901A80FB91F4C91552747FD50955C
:102600006530B0F4528341836F5F019632966D302E
:1026100069F711501111B5CF13C041E050E0881592
:10262000990511F440E050E0519541955109E8CFEA
:102630006B3018F455834483E7CF57834683E4CF48
:10264000EA85FB8580899189A289B38915E0B695D1
:10265000A795979587951A95D1F75C0160E0CF0112
:102660000E94050C6C01009709F463CE80E2D6014C
:102670001D928A95E9F7F70136968BE0D601019015
:102680000D928A95E1F7F70180818871D6011C9639
:102690008C93E091B405F091B505309739F0B6010F
:1026A000625F7F4FC6014096099509C081E298E2BA
:1026B000F601918B808B80E098E097878687D60122
:1026C00050968D919C91519753969C938E935297CF
:1026D00059969C938E9358971E968D919C911F9717
:1026E00057969C938E935697AA85BB851696ED9127
:1026F000FC91179780A1816080A32A81A5016A853A
:102700007B85C3010E94100D09C05524539425CE2A
:102710002F5F2D3009F433CE5A0192CE2B960FB68F
:10272000F894DEBF0FBECDBFDF91CF911F910F9107
:10273000FF90EF90DF90CF90BF90AF909F908F90E1
:102740007F906F905F904F903F902F90089561150C
:10275000710581F0DB010D900020E9F7AD014150DA
:102760005109461B570BDC01ED91FC910280F3816E
:10277000E02D099480E090E00895BF92CF92DF921F
:10278000EF92FF920F931F93CF93DF93EC01888119
:1027900080FF39C089819A818E01095F1F4FDC015A
:1027A000ED91FC914B815C816D817E810280F38192
:1027B000E02D98010995B82E811102C0B12C25C0D9
:1027C000888181FD04C088818E7F88831EC0A98195
:1027D000BA81ED91FC9111971C964D915D916D918F
:1027E0007C911F97CB80DC80ED80FE804C0D5D1DC1
:1027F0006E1D7F1D0280F381E02D9801CD010995AA
:102800008111E1CFDBCFBB24B3948B2DDF91CF912E
:102810001F910F91FF90EF90DF90CF90BF900895A0
:10282000CF92DF92EF92FF921F93CF93DF93EC0151
:102830006A017B01122F4B815C816D817E814C1579
:102840005D056E057F0501F10E94BD13811103C076
:1028500080E090E01FC012FF06C01882CB82DC82AD
:10286000ED82FE8211C089819A81DC01ED91FC919B
:102870000190F081E02D9E01295F3F4FB701A60135
:1028800009958111EACFE4CF13708881812B888369
:10289000CE010796DF91CF911F91FF90EF90DF90CF
:1028A000CF9008954250510961097109FC010480DB
:1028B00004C0440F551F661F771F0A94D2F7808902
:1028C0009189A289B389480F591F6A1F7B1FCB01C9
:1028D000BA010895CF92DF92EF92FF920F931F9368
:1028E000CF93DF93EC016A017B0189018D818032F6
:1028F00051F5E7E07695679557954795EA95D1F7B5
:102900008C899D89AE89BF89480F591F6A1F7B1F1B
:1029100022E0CE0180960E941014009711F48FEFF0
:1029200040C0E894C7F8DD24EE24FF24F601EE0F42
:10293000FF1FEE0FFF1FE80FF91F408151816281D9
:1029400073817F701DC0803151F74C895D896E891C
:102950007F894D0D511D611D711D22E0CE018096B4
:102960000E9410140097D9F2DD24EE24FF24F60112
:10297000EE0FFF1FE80FF91F4081518160E070E00A
:10298000888D998DAA8DBB8D84179507A607B707EB
:1029900038F0F801408351836283738381E001C082
:1029A00080E0DF91CF911F910F91FF90EF90DF902A
:1029B000CF9008958F929F92AF92BF92CF92DF9265
:1029C000EF92FF920F931F936A017B014801590117
:1029D000FC012581203231F517E0769567955795F2
:1029E00047951A95D1F70489158926893789400FAB
:1029F000511F621F731F23E080960E9410140097DE
:102A000099F0E894C7F8DD24EE24FF24F601EE0FD8
:102A1000FF1FEE0FFF1FE80FF91F80829182A28235
:102A2000B3821DC0203111F080E01AC0FC0144893E
:102A30005589668977894D0D511D611D711D23E0F2
:102A400080960E941014009779F3DD24EE24FF2471
:102A5000F601EE0FFF1FE80FF91F9182808281E0DF
:102A60001F910F91FF90EF90DF90CF90BF90AF90AC
:102A70009F908F9008953F924F925F926F927F92B6
:102A80008F929F92AF92BF92CF92DF92EF92FF927E
:102A90000F931F93CF93DF93CDB7DEB728970FB671
:102AA000F894DEBF0FBECDBF9E838D832A013B010C
:102AB00038872F83411551056105710531F4FC01FB
:102AC00080849184A284B38402C04A015B017501B1
:102AD0006401FFEFCF1ADF0AEF0AFF0AED81FE81E2
:102AE000808D918DA28DB38D8C159D05AE05BF0592
:102AF00028F402E0C02ED12CE12CF12C9E012F5F96
:102B00003F4FB701A6018D819E810E946A1487FD07
:102B10001DC0882341F089819A81AB81BC81892BBA
:102B20008A2B8B2B31F0C814D904EA04FB0489F6F4
:102B30000DC00FEF1FEF2FEF3FE0B701A6018D8112
:102B40009E810E94DA14382E811102C0312C1CC0E3
:102B5000411451046104710459F097018601B301D5
:102B6000A2018D819E810E94DA14811107C0EECFEF
:102B7000ED81FE81C086D186E286F386EF81F885FD
:102B8000C082D182E282F382832D28960FB6F89418
:102B9000DEBF0FBECDBFDF91CF911F910F91FF9090
:102BA000EF90DF90CF90BF90AF909F908F907F90ED
:102BB0006F905F904F903F9008959F92AF92BF9219
:102BC000CF92DF92EF92FF920F931F93CF93DF93F9
:102BD00000D000D0CDB7DEB75C016A017B019E0159
:102BE0002F5F3F4FB701A601C5010E946A14982EBE
:102BF00087FF02C080E01EC000E010E09801B7012E
:102C0000A601C5010E94DA148823A1F3F5014085CD
:102C1000518562857385C416D506E606F70620F44D
:102C2000C086D186E286F386C980DA80EB80FC809C
:102C30009110D5CF0F900F900F900F90DF91CF9103
:102C40001F910F91FF90EF90DF90CF90BF90AF90CA
:102C50009F900895CF92DF92EF92FF920F931F9370
:102C6000CF93DF93EC01162F1D8281E090E0A0E06E
:102C7000B0E088879987AA87BB87DAA3C9A318A27F
:102C80008FEF9FEFDC018BA39CA3ADA3BEA36623B4
:102C900021F1653008F0BFC020E040E050E0BA010B
:102CA000CE0180960E941014009709F4B4C0FC0174
:102CB00000E1109FE00DF11D1124E255FE4F8081CF
:102CC0008F7709F0A8C0C084D184E284F384C11452
:102CD000D104E104F10421F49EC0C12CD12C760171
:102CE00020E0B701A601CE0180960E941014FC01DD
:102CF000009709F490C0838594858115924009F06E
:102D00008AC08089823009F086C086859785892BA4
:102D100009F481C035853A838FEF830F8B831C8242
:102D200089E090E021E0321741F0019709F473C087
:102D3000220F4C814F5F4C83F6CF4689578941154E
:102D4000510519F060E070E004C044A155A166A1EE
:102D500077A14C875D876E877F87868597859701EA
:102D60008601080F191F211D311D0C8B1D8B2E8B09
:102D70003F8B818992899F838E83440F551F661FE5
:102D8000771F400F511F621F731F4C8F5D8F6E8F17
:102D90007F8FB5E0880F991FBA95E1F781509E4F5C
:102DA000892F99278695480F591F611D711D488BE2
:102DB000598B6A8B7B8B83899489009719F0A0E0EB
:102DC000B0E004C080A191A1A2A1B3A197018601A6
:102DD000041B150B260B370BB901A801480F591F0F
:102DE0006A1F7B1F0C8004C07695679557954795A1
:102DF0000A94D2F7DB01CA010196A11DB11D888F8B
:102E0000998FAA8FBB8F453F1FE051076105710560
:102E100020F48CE08D8380E012C0453F5F4F610558
:102E2000710510F480E109C084A595A5A6A5B7A5F4
:102E30008C8F9D8FAE8FBF8F80E28D8381E0DF917D
:102E4000CF911F910F91FF90EF90DF90CF90089559
:102E500090E022E0281740F0892F806A86958CBD8B
:102E6000909591709DBD08959730B0F7220F9530E1
:102E700010F431E001C032E0930FECCF8FEF8EBD44
:102E80000DB407FEFDCF8EB508958EBD0DB407FEBF
:102E9000FDCF089561E0FC0182810E9451318FEFE6
:102EA0000C944517CF93DF93EC018C810E94281777
:102EB00060E08A81DF91CF910C945131CF92DF9203
:102EC000EF92FF920F931F93CF93DF93EC018B014F
:102ED0007A010E9453306B010E943E178D838F3F11
:102EE00049F40E9453306C197D096D327140A0F392
:102EF00081E103C08E3F39F08FE08B83CE010E94C9
:102F00004A1780E028C0E114F104E1F081E0E81AFA
:102F1000F1088FEF8EBDF8012FEFCF01801B910BD1
:102F20008E159F0538F40DB407FEFDCF8EB52EBD6E
:102F30008193F3CF0DB407FEFDCF8EB5F801EE0DF2
:102F4000FF1D80831D820E943E170E943E17CE0106
:102F50000E944A1781E0DF91CF911F910F91FF905E
:102F6000EF90DF90CF9008950F931F93CF93DF934F
:102F7000EB010E9453308B010E943E178F3F49F0B6
:102F80000E945330601B710B6C177D07A8F380E023
:102F900001C081E0DF91CF911F910F910895FF92C1
:102FA0000F931F93CF93DF9300D000D0CDB7DEB740
:102FB0008C01F62E29833A834B835C830E9452173F
:102FC00068E572E0C8010E94B4178F2D80640E94EA
:102FD00045178C810E9445178B810E9445178A8175
:102FE0000E94451789810E944517F11002C085E9AA
:102FF00001C087E80E9445178CE0F81202C00E94C9
:103000003E17F12C0E943E17F801858387FF05C00B
:10301000FFEFFF1611F0F394F5CF0F900F900F9084
:103020000F90DF91CF911F910F91FF900895BF9264
:10303000CF92DF92EF92FF920F931F93CF93DF9384
:10304000EC01B22E1E821B82798368834A830E9420
:1030500053308B0161E08A810E94183161E08A81DE
:103060000E9451312A9A229A239A259A80E48C83CD
:103070000E9428172AE0F22E8FEF0E944517FA943B
:10308000D9F720E030E0A90160E0CE010E94CF171F
:10309000813049F00E945330601B710B613D7740D5
:1030A00080F381E051C02AEA31E040E050E068E07E
:1030B000CE010E94CF17853011F481E00AC094E060
:1030C000F92E0E943E178D83FA94D9F78A3A59F463
:1030D00082E08E838E81823079F4C12CD12CE12C58
:1030E00080E4F82E0CC00E945330601B710B613DD0
:1030F0007740C8F282E028C0C12CD12C760120E0B4
:1031000030E0A90167E3CE010E94CF17A701960125
:1031100069E2CE010E94CF17882349F00E94533004
:10312000601B710B613D774050F38AE00DC08E81CA
:103130008230E9F420E030E0A9016AE3CE010E9488
:10314000CF17882339F088E08B83CE010E944A177D
:1031500080E012C00E943E17807C803C11F483E026
:103160008E830E943E170E943E170E943E17CE019A
:103170000E944A17BC8281E0DF91CF911F910F918D
:10318000FF90EF90DF90CF90BF9008950F931F9323
:10319000CF93DF93EC0189018E81833039F039E0E0
:1031A000440F551F661F771F3A95D1F79A01AB015F
:1031B00061E1CE010E94CF1781110AC040E052E0C8
:1031C000B801CE01DF91CF911F910F910C945E1742
:1031D00084E08B83CE010E944A1780E0DF91CF917B
:1031E0001F910F9108950F931F93CF93DF93EC01DD
:1031F000862F8A010E944517F80180818EBD81814A
:1032000022E030E00DB407FEFDCF8EBD2115F2E0C7
:103210003F0739F0F801E20FF31F80812F5F3F4F26
:10322000F1CF0DB407FEFDCF8FEF0E9445178FEF52
:103230000E9445170E943E178D838F71853039F0AB
:1032400083E18B83CE010E944A1780E001C081E0B8
:10325000DF91CF911F910F9108950F931F93CF93FB
:10326000DF93EC0189018E81833039F089E0440FCE
:10327000551F661F771F8A95D1F79A01AB0168E148
:10328000CE010E94CF17882319F086E08B830CC0F3
:10329000A8016EEFCE010E94F318182F882321F0A9
:1032A000CE010E944A1704C0CE010E944A1710E0C6
:1032B000812FDF91CF911F910F91089561E08AE0F6
:1032C0000E94513161E08AE00E9418318CB5806122
:1032D0008CBD8CB580648CBD61E08DE00E9418319E
:1032E00061E08BE00C941831CF92DF92EF92FF9265
:1032F0000F9330E0C12CF2E1DF2EFAE7EF2EF12C34
:103300004C155D056E057F0540F4F694E794D7945F
:10331000C7943F5F3630A1F737E041E043272111E2
:1033200002C050E701C050E5242F30E035952795C5
:1033300023700C70202B252BFC01208341704183CE
:103340000F91FF90EF90DF90CF9008952091BA05F4
:10335000222381F0213051F42DB32093B8053DB3E1
:103360002091B905209523232DBB04C02FB72093AE
:10337000B805F8948CBD9DBD08959091BA05992328
:1033800039F08091B805913011F48DBB08958FBF4D
:10339000089590E0982F882744E050E0845F9B4F89
:1033A0000C94271E282F30E02C5F3F4F922F882748
:1033B000860F971F0C94561E62E070E00C94D21991
:1033C000FB01282F30E02C5F3F4F922F8827642F7E
:1033D0008E0F9F1F0C94A51DCF93DF93C82FD62F60
:1033E000472F64E070E00E94E0194D2F65E070E027
:1033F0008C2FDF91CF910C94E019462F62E070E0A2
:103400000C94E019CF93DF93C82FD62F472F60E19C
:1034100070E00E94E0194D2F61E170E08C2FDF9188
:10342000CF910C94E0190F931F93CF93DF9300D0AB
:103430001F92CDB7DEB7182F00E021E040E059E041
:103440006DE370E0CE0101960E94741989819A8122
:103450000E94A61963E070E0812F0E94D2198B832D
:103460000E94BD198B810F900F900F90DF91CF912B
:103470001F910F9108950F931F93CF93DF9300D067
:10348000CDB7DEB7182F00E021E040E059E06DE352
:1034900070E0CE0101960E94741989819A810E9480
:1034A000A61940E150E0612F8DEB95E00E942020AD
:1034B0006FEF812F0E94FD190E94BD190F900F9090
:1034C000DF91CF911F910F910895CF92DF92EF92EC
:1034D000FF920F931F93CF93DF9300D0CDB7DEB74A
:1034E000182FD62E7A01C22E8FEF860F8530A8F5C1
:1034F000812F0E943B1A00E021E040E059E06DE39B
:1035000070E0CE0101960E94741989819A810E940F
:10351000A6194D2D4C2960E070E0812F0E94E01922
:10352000E114F10411F0B7010AC06091BB0570917C
:10353000BC056F5F7F4F7093BC056093BB05812F07
:103540000E94EC1941E050E0612F8DEB95E00E9464
:1035500020200E94BD1981E001C080E00F900F90F3
:10356000DF91CF911F910F91FF90EF90DF90CF905F
:1035700008950F931F93CF93DF9300D0CDB7DEB79D
:10358000182F00E021E040E059E06DE370E0CE014B
:1035900001960E94741989819A810E94A61963E09C
:1035A00070E0812F0E94D219833121F00E94BD1951
:1035B00080E00AC042E050E0612F8DEB95E00E9470
:1035C00020200E94BD1981E00F900F90DF91CF91D4
:1035D0001F910F910895CF92DF92EF92FF920F9378
:1035E0001F93CF93DF9300D0CDB7DEB7182F7B01A9
:1035F0006A01FB0180818F3F51F481818F3F99F4F3
:1036000082818F3F81F483818F3F69F430C08111C3
:103610000AC0FB018181811106C08281811103C032
:103620008381882321F1C114D10409F100E021E054
:1036300040E059E06DE370E0CE0101960E947419FC
:1036400089819A810E94A619B701812F0E94C91908
:10365000B601812F0E94021A44E050E0612F8DEBE9
:1036600095E00E9420200E94BD1981E001C080E009
:103670000F900F90DF91CF911F910F91FF90EF90DE
:10368000DF90CF9008950F931F93CF93DF9300D0D7
:10369000CDB7DEB7182F00E021E040E059E06DE340
:1036A00070E0CE0101960E94741989819A810E946E
:1036B000A61948E050E0612F8DEB95E00E94202094
:1036C0000E94BD190F900F90DF91CF911F910F9124
:1036D0000895BF92CF92DF92EF92FF920F931F93C4
:1036E000CF93DF9300D01F92CDB7DEB7B82E6B011A
:1036F0007A01413088E0580718F0E12C98E0F92E63
:1037000000E021E040E059E06DE370E0CE01019679
:103710000E94741989819A810E94A6196B2D8DEBE4
:1037200095E00E948E1E8C0163E070E08B2D0E945C
:10373000D2198B830E94BD198B81873111F08C3196
:1037400031F40E94F82F0E151F05D0F202C0E12CB3
:10375000F12C00E021E040E059E06DE370E0CE01A3
:1037600001960E94741989819A810E94A619970175
:10377000A6016B2D8DEB95E00E944D1F40E250E0BD
:103780006B2D8DEB95E00E9420208B2D0E94DC1983
:1037900084FD22C063E070E08B2D0E94D21981115C
:1037A00008C00E94BD198B2D0E943B1A80E090E05A
:1037B0001AC00E94BD190E94F82F00E021E040E0ED
:1037C00059E06DE370E0CE0101960E947419898181
:1037D0009A810E94A619D9CF60E18B2D0E94FD1914
:1037E0000E94BD19C7010F900F900F90DF91CF91EC
:1037F0001F910F91FF90EF90DF90CF90BF900895B1
:10380000AF92BF92CF92DF92EF92FF920F931F93EE
:10381000CF93DF9300D0CDB7DEB7182F5B016A01DD
:1038200000E021E040E059E06DE370E0CE01019658
:103830000E94741989819A810E94A619612F8DEBCB
:1038400095E00E94C21E7C010097A1F463E070E045
:10385000812F0E94D219843119F1882309F121E0C6
:1038600030E08C3111F420E030E0EE24FF24E21A45
:10387000F30A16C0C816D9060CF476011E141F04EC
:103880007CF400E09701A501612F8DEB95E00E948B
:10389000D01F40E450E0612F8DEB95E00E94202086
:1038A0000E94BD19C7010F900F90DF91CF911F911A
:1038B0000F91FF90EF90DF90CF90BF90AF90089561
:1038C0000F931F93CF93DF9300D000D0CDB7DEB717
:1038D000182F00E021E040E059E06DE370E0CE01F8
:1038E00001960E94741989819A810E94A619612FFC
:1038F0008DEB95E00E94C21E8B839C830E94BD19B4
:103900008B819C810F900F900F900F90DF91CF9142
:103910001F910F910895EF92FF920F931F93CF93F2
:10392000DF9300D0CDB7DEB7182F7B0100E021E098
:1039300040E059E06DE370E0CE0101960E947419F9
:1039400089819A810E94A61901E021E030E0A70157
:10395000612F8DEB95E00E94D01F0E94BD1981E080
:1039600090E00F900F90DF91CF911F910F91FF90FA
:10397000EF90089508959F92AF92BF92CF92DF92F9
:10398000EF92FF920F931F93CF93DF9300D0CDB7A9
:10399000DEB7982E6B015A01790100E021E040E08A
:1039A00059E06DE370E0CE0101960E94741989819F
:1039B0009A810E94A619692D8DEB95E00E948E1EBA
:1039C0008E159F0530F4692D8DEB95E00E948E1EBB
:1039D0007C0187019501A601692D8DEB95E00E9480
:1039E000DE1E0E94BD19C7010F900F90DF91CF918D
:1039F0001F910F91FF90EF90DF90CF90BF90AF900D
:103A00009F900895CF92DF92EF92FF920F931F93B2
:103A1000CF93DF9300D0CDB7DEB7182F7B016A01BB
:103A2000FB018081811109C08181811106C08281E1
:103A3000811103C083818823F1F0C114D104D9F02E
:103A400000E021E040E059E06DE370E0CE01019636
:103A50000E94741989819A810E94A619B701812F49
:103A60000E94C919B601812F0E94021A0E94BD1935
:103A700081E090E002C080E090E00F900F90DF9135
:103A8000CF911F910F91FF90EF90DF90CF9008950D
:103A90000F931F93CF93DF9300D0CDB7DEB7182FCE
:103AA00000E021E040E059E06DE370E0CE010196D6
:103AB0000E94741989819A810E94A61940E250E0FF
:103AC000612F8DEB95E00E942020812F0E94DC1950
:103AD00084FD21C0812F0E94DC1983FF09C068E1A9
:103AE000812F0E94FD190E94BD1980E090E01BC04B
:103AF0000E94BD190E94F82F00E021E040E059E04B
:103B00006DE370E0CE0101960E94741989819A815B
:103B10000E94A619DACF60E1812F0E94FD190E9450
:103B2000BD1981E090E00F900F90DF91CF911F9130
:103B30000F9108958EBD00000DB407FEFDCF8EB528
:103B400008952A9808952A9A08951F93CF93DF9392
:103B500000D0CDB7DEB7182F6A8399830E94A11DCC
:103B600080EF0E949A1D9981892F0E949A1D812FB2
:103B70000E949A1D6A81862F0E949A1D0E94A31D91
:103B800081E00F900F90DF91CF911F910895CF9317
:103B9000DF93EC016CE271E080E090E00E94823003
:103BA0000E945E19229A8091BA05882381F08130A3
:103BB00051F48DB38093B8059DB38091B90580957C
:103BC00089238DBB04C08FB78093B805F89480E536
:103BD0008CBD1DBC60E880E090E00E94A51D65E5FD
:103BE0008BE190E00E94A51D65E58AE190E00E94CE
:103BF000A51D9091BA05992339F08091B8059130AF
:103C000011F48DBB01C08FBF80E090E4998388835D
:103C100080E090E69987888780E098E49B838A8398
:103C200080E098E69B878A8780E090E59D838C837F
:103C300080E090E79D878C8780E098E59F838E8366
:103C400080E098E79F878E87DF91CF910895CF928C
:103C5000DF92EF92FF920F931F93CF93DF93EC01CC
:103C60007A018B016C01C40ED51ECC15DD05A1F0C7
:103C70000E94A11D80EF0E949A1D8D2F0E949A1D07
:103C80008C2F0E949A1D2196F80181918F010E942C
:103C90009A1D0E94A31DE9CFC701DF91CF911F910B
:103CA0000F91FF90EF90DF90CF9008951F93CF93E7
:103CB000DF931F92CDB7DEB7182F99830E94A11D05
:103CC0008FE00E949A1D9981892F0E949A1D812F51
:103CD0000E949A1D80E00E949A1D89830E94A31D64
:103CE00089810F90DF91CF911F9108951F93CF93FA
:103CF000DF93182F60E270E00E94D219C82FD0E045
:103D000061E270E0812F0E94D219DC2FCC279E0146
:103D1000282BC901DF91CF911F910895FF920F9336
:103D20001F93CF93DF93F62EC0E0D0E08F2D0E943B
:103D3000761E8C01009721F08F2D0E94761EEC01DB
:103D4000C017D10799F7CE01DF91CF911F910F9145
:103D5000FF9008951F93CF93DF93182F66E270E0D2
:103D60000E94D219C82FD0E067E270E0812F0E9434
:103D7000D219DC2FCC279E01282BC901DF91CF91CE
:103D80001F910895FF920F931F93CF93DF93F62E09
:103D9000C0E0D0E08F2D0E94AA1E8C01009721F078
:103DA0008F2D0E94AA1EEC01C017D10799F7CE01F2
:103DB000DF91CF911F910F91FF9008956F927F92A5
:103DC0009F92AF92BF92CF92DF92EF92FF920F93AA
:103DD0001F93CF93DF931F92CDB7DEB7D82E962EC9
:103DE0003A01590164E270E0892D99830E94D21949
:103DF000E82EF12C65E270E0892D0E94D219FE2C8C
:103E0000EE24E82AE60CF71C970137706D2C998197
:103E1000792E690C711C690C711CD301ED91FC9118
:103E2000E20FF31FC901800F911F81309840A0F06D
:103E3000C12C48E0D42EC21AD30AA601B501CF0185
:103E40000E94271EA8014C195D09B5016C0D7D1D4E
:103E5000F3018081918103C0A801B501CF010E94C7
:103E6000271EE00EF11E4F2D64E270E0892D0E94A6
:103E7000E0194E2D65E270E0892D0F90DF91CF9112
:103E80001F910F91FF90EF90DF90CF90BF90AF9078
:103E90009F907F906F900C94E0190F931F9389016E
:103EA0009A0140E050E00E94DE1E1F910F9108959C
:103EB000CF92DF92EF92FF920F931F93CF93DF93F6
:103EC000EC017A018B016C01C40ED51ECC15DD0509
:103ED000A9F00E94A11D8FE00E949A1D8D2F0E94C3
:103EE0009A1D8C2F0E949A1D219680E00E949A1D97
:103EF000F80181938F010E94A31DE8CFC701DF91D4
:103F0000CF911F910F91FF90EF90DF90CF90089588
:103F1000AF92BF92CF92DF92EF92FF920F931F93D7
:103F2000CF93DF9300D0CDB7DEB75A8349835901D1
:103F3000E981FA81F7707C01E60EF11CE60EF11CB6
:103F4000D70118968D919C9119978E0F9F1F9801FC
:103F50002E0F3F1F2130384098F0C12C68E0D62E3C
:103F6000CE1ADF0AA601B5010E94581FA8014C19FC
:103F70005D09B5016C0D7D1DF7018085918502C03D
:103F8000A801B5010F900F90DF91CF911F910F9174
:103F9000FF90EF90DF90CF90BF90AF900C94581FA0
:103FA0008F929F92AF92BF92CF92DF92EF92FF9249
:103FB0000F931F93CF93DF936C01962E5A017901D3
:103FC000802E68E270E0892D0E94D219C82FD0E0BF
:103FD00069E270E0892D0E94D219DC2FCC27C82B12
:103FE00087019501AE01692DC6010E94881F8110CD
:103FF0001AC0CE0DDF1D4D2F68E270E0892D0E94A2
:10400000E0194C2F69E270E0892DDF91CF911F916B
:104010000F91FF90EF90DF90CF90BF90AF909F9067
:104020008F900C94E019DF91CF911F910F91FF9029
:10403000EF90DF90CF90BF90AF909F908F900895BA
:10404000CF93C62F61E070E08C2F0E94E01961E0F1
:1040500070E08C2F0E94D2198111F9CFCF91089571
:104060000F9300E020E040E060E08DEC95E00E94DE
:10407000352C0F910895FB01428153816481758134
:10408000FC014283538364837583178216820895EB
:10409000CF93FB0181918111FDCFFB0180E090E086
:1040A00020E030E0CAE06191662309F12430310557
:1040B00064F56E3271F48F3F910509F034F5DA0141
:1040C000A20FB31F12968C932F5F3F4F80E090E0BA
:1040D000EACFDC01CA9FC001CB9F900D1124772746
:1040E00067FD709560537109860F971FDCCF8F3F76
:1040F000910509F054F4243031053CF4FA01E20F43
:10410000F31F828381E090E002C080E090E0CF91D5
:1041100008950F9300E020E040E060E083ED95E03B
:104120000E94352C0F910895AF92BF92CF92DF92EB
:10413000EF92FF920F931F93CF93DF9300D01F92C4
:10414000CDB7DEB76C017B010E945330F601778357
:1041500066838601085F1F4FB6016A5F7F4F42E0AA
:1041600050E0C8010E94972881E090E09A838983FB
:1041700042E050E0BE016F5F7F4FC8010E94972868
:1041800080E091E09A83898342E050E0BE016F5F56
:104190007F4FC8010E9497281A82198242E050E09E
:1041A000BE016F5F7F4FC8010E94972842E050E038
:1041B000BE016F5F7F4FC8010E94972842E050E028
:1041C000BE016F5F7F4FC8010E9497286701F6010B
:1041D0008081882311F1F7016F018191811115C050
:1041E0005601AE18BF081A141B0494F4AB8241E0C8
:1041F00050E0BE016D5F7F4FC8010E949728A50166
:10420000B701C8010E94972803C08E3229F7E8CF72
:104210007601FFEFEF1AFF0ADACF1B8241E050E090
:10422000BE016D5F7F4FC8010E949728E12CFF24DB
:10423000F394FA82E98242E050E0BE016F5F7F4F63
:10424000C8010E949728FA82E98242E050E0BE014C
:104250006F5F7F4FC8010E94972881E090E00F9028
:104260000F900F90DF91CF911F910F91FF90EF90E2
:10427000DF90CF90BF90AF9008954F925F926F9272
:104280007F928F929F92AF92BF92CF92DF92EF92E6
:10429000FF920F931F93CF93DF93CDB7DEB7639752
:1042A0000FB6F894DEBF0FBECDBF7C015B016A0183
:1042B0000E9453302B013C018701085F1F4F4501CD
:1042C000A12CB12CC8010E9437291816190694F0A8
:1042D0000E94533064197509860997098616970656
:1042E000A806B906D0F062E370E080E090E00E949A
:1042F0008230E8CFF7014281538164817581818DDD
:10430000928DA38DB48D481759076A077B0741F436
:10431000858D968DC59721F406C08FEF9FEFF9C06C
:104320008EEF9FEFF6C0C8010E944A280C970CF44C
:10433000EEC04CE050E0BE016F5F7F4FC8010E94AD
:10434000D4288B819C819827892798279A8B898BE1
:10435000F7014681578129813A814217530711F4A9
:1043600097FD06C0C8010E9464288CEF9FEFD1C062
:104370008F709270892B31F0C8010E9464288BEFF6
:104380009FEFC7C0AF80B884BA24AB24BA24A1146D
:10439000B10419F0E12CF12C23C0C8010E9464285B
:1043A0008AEF9FEFB6C041E050E0BE01635F7F4FF0
:1043B000C8010E94D4288D8581111BC08D85811173
:1043C000F2CFC8010E94AB28C8010E94AB28C801E7
:1043D0000E94AB28C8010E94AB28FFEFEF1AFF0A2A
:1043E0008D819E81982789279827E816F906D8F2AB
:1043F0000AC08D859FEF980F9D878823F9F2C80129
:104400000E94AB28F6CFE12CF12C41E050E0BE0138
:104410006D5E7F4FC8010E94D4288B89982F907CB5
:1044200061F4882371F08B899FEF980F9B8B882311
:1044300041F0C8010E94AB28F6CFC8010E94AB280A
:104440001B8A8B898111E1CF42E050E0BE01615FA0
:104450007F4FC8010E94D42842E050E0BE01635F54
:104460007F4FC8010E94D428C8010E94AB28C80110
:104470000E94AB28C8010E94AB28C8010E94AB284B
:1044800042E050E0BE016F5E7F4FC8010E94D42819
:104490008F8598898115914029F48D859E85811598
:1044A000914019F0812C912C16C089899A89811527
:1044B000944031F0C8010E94642887EF9FEF29C023
:1044C000B6016E5F7F4F44E050E0C8010E94D428DF
:1044D00081E090E01EC089899A89982789279827CA
:1044E0008816990638F4C8010E94AB282FEF821A6B
:1044F000920AF1CF8FEFE81AF80AEA14FB0409F0E8
:1045000084CFC8010E94642886EF9FEF02C08DEF20
:104510009FEF63960FB6F894DEBF0FBECDBFDF915D
:10452000CF911F910F91FF90EF90DF90CF90BF90B0
:10453000AF909F908F907F906F905F904F90089575
:104540008F929F92AF92BF92CF92DF92EF92FF92A3
:104550000F931F93CF93DF9300D000D000D0CDB73F
:10456000DEB78C015B016A010E9448204C01009774
:1045700009F05DC0F80142815381648175818091A9
:10458000D5059091D605A091D705B091D8054817CB
:1045900059076A077B0709F44EC00E94533078011F
:1045A000F8E0EF0EF11C6F7077277C5FC7010E9467
:1045B0000A29813009F043C081E193E09A8389831D
:1045C000F80182819381A481B5818B839C83AD8323
:1045D000BE8345E350E0BE016F5F7F4FC7010E947D
:1045E0008B28892B19F4812C912C1DC0B501C80191
:1045F0000E949420892BB9F3C7010E949328892B2C
:1046000091F333E0A32EB12CA60168E873E1C80151
:104610000E943D214C01F1E0AF1AB10821F08F3F1B
:104620002FEF920789F3C7010E94762808C08824DB
:104630008394912C04C09EEF892E99249A94C401EE
:1046400026960FB6F894DEBF0FBECDBFDF91CF9197
:104650001F910F91FF90EF90DF90CF90BF90AF90A0
:104660009F908F90089544E050E0BC0181E090E07D
:104670000C94271E44E050E0BC0185E090E00C94CF
:10468000271E44E050E0BC018FE090E00C94271E10
:104690008F929F92AF92BF92CF92DF92EF92FF9252
:1046A0000F931F93CF93DF9300D0CDB7DEB74C01AC
:1046B0006A0159018DEB95E069837A830E94C71DD9
:1046C00080E590E00E94A61946E050E069817A8179
:1046D00089E090E00E94271EC60102960E944123B5
:1046E000C80102960E943323C70102960E943A2312
:1046F0000E94BD19F5014281538164817581F401E5
:1047000042835383648375830F900F90DF91CF9121
:104710001F910F91FF90EF90DF90CF90BF90AF90DF
:104720009F908F9008956F927F928F929F92AF92F9
:10473000BF92CF92DF92EF92FF920F931F93CF938E
:10474000DF93CDB7DEB76E970FB6F894DEBF0FBE1E
:10475000CDBF6C015B017A014901380100E02FEF08
:104760004FEF6FEFCE0149960E94352C21E133E0E7
:104770003A8329838B8D9C8DAD8DBE8D8B839C83DD
:10478000AD83BE8338872F83F30182819381A48117
:10479000B58189879A87AB87BC873E872D87F401CF
:1047A00082819381A481B5818F87988BA98BBA8BE5
:1047B0003C8B2B8BF70142815381648175814D8B3A
:1047C0005E8B6F8B788FCE0101967C018E01095F25
:1047D0001F4F9E01235F3F4FAE014D5E5F4FB501FE
:1047E000C6010E9448236E960FB6F894DEBF0FBE36
:1047F000CDBFDF91CF911F910F91FF90EF90DF9090
:10480000CF90BF90AF909F908F907F906F900895C2
:10481000CF92DF92EF92FF920F931F93CF93DF938C
:10482000CDB7DEB768970FB6F894DEBF0FBECDBF29
:104830006B017901DA0112964D915D916D917C9138
:1048400015974D8B5E8B6F8B788FA1E1B3E0BA83A8
:10485000A98321E0288F0D891E892F89388D0B832C
:104860001C832D833E83B887AF83F70102811381B8
:104870002481358109871A872B873C87BE87AD87BE
:104880004F87588B698B7A8B8E010F5F1F4F9E016C
:10489000295F3F4FAE01435F5F4FB6010E949323F4
:1048A00068960FB6F894DEBF0FBECDBFDF91CF91F3
:1048B0001F910F91FF90EF90DF90CF9008950F938D
:1048C0001F93CF93DF93CDB7DEB762970FB6F894FF
:1048D000DEBF0FBECDBFDB01FA014281538164818F
:1048E00075814F87588B698B7A8BE1E1F3E0FA830E
:1048F000E98321E02A8B0F85188929893A890B835E
:104900001C832D833E83F887EF8349875A876B8703
:104910007C879E012F5F3F4FAE01495F5F4FBD0116
:104920000E94082462960FB6F894DEBF0FBECDBF7A
:10493000DF91CF911F910F91089521E133E0FC01A8
:1049400031832083FB014281538164817581FC01A5
:10495000428353836483758308950F9300E020E0BE
:1049600040E060E089EE95E00E94352C89ED95E00D
:104970000F910C942B2C81E086270895862F0895A3
:10498000DC01ED91FC91048CF58DE02D099591E011
:1049900089270895CF93DF931F92CDB7DEB7698340
:1049A000DC01ED91FC910280F381E02D41E050E0CB
:1049B000BE016F5F7F4F09950F90DF91CF910895F2
:1049C00021E0FC018485843009F420E0822F0895E1
:1049D000FC019485FB018485981303C081E0943029
:1049E00009F480E008950F931F93CF93DF93EC01B8
:1049F0008A018C85843021F00E94691B892B39F44F
:104A000081E090E09B838A8380E090E001C0C80150
:104A1000DF91CF911F910F910895FC01848584301F
:104A200011F00C94601C80E090E00895CF93DF9328
:104A30001F92CDB7DEB741E050E0BE016F5F7F4F00
:104A4000FC0184850E94001C181619061CF489813B
:104A500090E002C08FEF9FEF0F90DF91CF9108950C
:104A6000FC0184850C94001C0F931F93CF93DF935C
:104A70001F92CDB7DEB78C01DC01ED91FC91048073
:104A8000F581E02D0995892B51F0BE016F5F7F4FB5
:104A9000F80184850E948B1C898190E002C08FEF11
:104AA0009FEF0F90DF91CF911F910F910895FC011F
:104AB00084850C94BA1CCF92DF92EF92FF920F93F1
:104AC0001F93CF93DF93CDB7DEB7AF970FB6F894B0
:104AD000DEBF0FBECDBF7C018B016A01CE01019606
:104AE0000E942B2CCE0109960E948729CE018A961E
:104AF0000E942B2C69ED75E0CE0184960E949D24C6
:104B0000BE016C5D7F4FCE0101960E943B20AE013D
:104B1000465D5F4FB801CE0101960E94A022813010
:104B20009105C1F4D701ED91FC910484F585E02D48
:104B300081E193E09DA38CA30CA51DA52EA53FA507
:104B40000EA31FA328A739A7A601BE016C5D7F4F46
:104B5000C7010995AF960FB6F894DEBF0FBECDBF63
:104B6000DF91CF911F910F91FF90EF90DF90CF9049
:104B70000895FC01262F1382128248EE53E060E074
:104B800070E044835583668377838FEA92E0918354
:104B9000808324870895FC018485843011F00C946F
:104BA000131A80E00895DF92EF92FF920F931F9304
:104BB000CF93DF93EC017B018A018C85843009F06F
:104BC00045C0D12C8D2D0E94131A811102C0DC86A4
:104BD00007C08B7F8831D9F3D39484E0D812F2CF09
:104BE0008C85843099F120911C0130911D012F5F3B
:104BF0003F4F11F420E030EC30931D0120931C0155
:104C000040911C0150911D0120E061E00E94651A55
:104C1000B7016E5F7F4FA8018C850E94EB1A81114E
:104C200003C084E08C8712C0CE010E94CB2587315F
:104C300051F061E070E080E090E00E948230CE01AF
:104C40000E94CB25ECCF81E090E002C080E090E0B4
:104C5000DF91CF911F910F91FF90EF90DF9008951A
:104C6000CF92DF92EF92FF92CF93DF93EC018C858E
:104C7000843049F10E94431B0E9453306B017C0138
:104C8000CE010E94CB258823A1F061E070E080E096
:104C900090E00E9482300E9453306C197D098E0989
:104CA0009F09683E73408105910550F38C850E94F1
:104CB0003B1AEC85F0E0EE0FFF1FEF51FA4F118227
:104CC000108284E08C87DF91CF91FF90EF90DF908E
:104CD000CF900895CF93DF93EC018C858430D1F091
:104CE000CE010E94CB258431A9F0882399F0883128
:104CF00089F08C3169F4E881F9810480F581E02D37
:104D0000CE01099521E0892B09F420E0822F03C010
:104D100081E001C080E0DF91CF9108950F9300E022
:104D200020E040E060E08FEE95E00E94352C0F918E
:104D30000895CF93DF931F92CDB7DEB76983DC016F
:104D4000ED91FC910280F381E02D41E050E0BE0145
:104D50006F5F7F4F09950F90DF91CF910895EF928C
:104D6000FF920F931F93CF93DF93CDB7DEB72D97AD
:104D70000FB6F894DEBF0FBECDBF7C0100E010E09F
:104D8000602FCE0101960E94B925CE0101960E94A6
:104D9000CB25811116C0F7014481558120E061E0E7
:104DA000802F0E94651A802F0E94B91AF701848112
:104DB0009581F801EE0FFF1FEF51FA4F9183808329
:104DC00005C00F5F1F4F04301105D1F62D960FB6A9
:104DD000F894DEBF0FBECDBFDF91CF911F910F9131
:104DE000FF90EF900895FC011382128283ED92E010
:104DF00091838083758364830895BF92CF92DF92FD
:104E0000EF92FF920F931F93CF93DF93CDB7DEB74F
:104E10002D970FB6F894DEBF0FBECDBF8C0141EECB
:104E2000C42E45E0D42EB12CE12CF12C6B2DCE01FB
:104E300001960E94B925D6012D913D916D01F80191
:104E40008481958128173907B1F4CE0101960E941B
:104E5000CB25843169F0CE0101960E94CB258C319F
:104E600051F4CE0101960E940D25892B99F003C0C3
:104E7000EE24E394F12CB394F4E0BF12D7CFEF28E3
:104E800071F4D801ED91FC910480F581E02DC80109
:104E9000099505C0CE0101960E943026ECCF2D96D3
:104EA0000FB6F894DEBF0FBECDBFDF91CF911F913B
:104EB0000F91FF90EF90DF90CF90BF9008957F9279
:104EC0008F929F92AF92BF92CF92DF92EF92FF921A
:104ED0000F931F93CF93DF93CDB7DEB72D970FB608
:104EE000F894DEBF0FBECDBF6C015B014A010E948A
:104EF000FD2651EEE52E55E0F52E712C00E010E078
:104F0000672DCE0101960E94B925F70121913191BB
:104F10007F01F601848195812817390731F4CE018C
:104F200001960E94CB258731C9F07394F4E07F127B
:104F3000E7CFC8012D960FB6F894DEBF0FBECDBFE8
:104F4000DF91CF911F910F91FF90EF90DF90CF9065
:104F5000BF90AF909F908F907F900895A401B5016E
:104F6000CE0101960E94F324080F191FDECFBF92D5
:104F7000CF92DF92EF92FF920F931F93CF93DF9325
:104F8000CDB7DEB72D970FB6F894DEBF0FBECDBFFD
:104F90008C016B01CB010E94FD2661EEE62E65E0DF
:104FA000F62EB12C6B2DCE0101960E94B925F7018A
:104FB000219131917F01F60184819581281739076C
:104FC00051F5CE0101960E94CB25873111F08C312D
:104FD00011F5CE0101960E940D25892BE1F08B8100
:104FE0009C81F801938382838D819E81AF81B885F6
:104FF00084839583A683B78349855A856B857C8591
:1050000040875187628773878FEA92E0918380831C
:105010008D85848708C0B394F4E0BF12C3CF64E0E9
:10502000C8010E94B925C8012D960FB6F894DEBFBD
:105030000FBECDBFDF91CF911F910F91FF90EF90E9
:10504000DF90CF90BF9008950F9300E020E040E004
:1050500060E085EF95E00E94352C0F910895DC010A
:10506000ED91FC91008CF18DE02D099421E133E06C
:10507000FC0131832083FB01418952896389748952
:10508000FC0142835383648375830895FC01858901
:1050900096890895FC01818D928D0895CF93DF93B9
:1050A0001F92CDB7DEB76983DC01ED91FC910280E0
:1050B000F381E02D41E050E0BE016F5F7F4F099525
:1050C0000F90DF91CF910895CF93DF93EC01898DFD
:1050D0009A8D892B41F0E881F9810680F781E02DD6
:1050E000CE010995F4CFDF91CF910895CF93DF934F
:1050F000EC018C85843061F00E943B1AEC85F0E075
:10510000EE0FFF1FEF51FA4F1182108284E08C875F
:10511000DF91CF910895FC01108E178A6E5F7F4F4B
:1051200084850C94021DFC0184850C94481DCF934A
:10513000DF93EC019A018F89988DAB01BC018C85BE
:105140000E94BB1C2F89388D280F391F388F2F8B59
:10515000DF91CF9108950F931F93CF93DF931F9209
:10516000CDB7DEB78C01FC01818D928D892B59F072
:1051700041E050E0BE016F5F7F4F84850E94001CBC
:10518000181619061CF08FEF9FEF08C0F801818DEB
:10519000928D0197928F818F898190E00F90DF919E
:1051A000CF911F910F910895CF93DF93EC01898DDB
:1051B0009A8D009719F48FEF9FEF10C04817590789
:1051C00008F0AC018C850E94001C181619069CF78B
:1051D000298D3A8D281B390B3A8F298FDF91CF917A
:1051E0000895CF93DF931F92CDB7DEB7FC01218DD9
:1051F000328D232B49F0BE016F5F7F4F84850E9463
:105200008B1C898190E002C08FEF9FEF0F90DF91A0
:10521000CF910895FF920F931F93CF93DF93EC01EB
:105220008B018C858430E1F4F12C8F2D0E94131AB0
:10523000811102C0FC8606C08831E1F3F39484E05A
:10524000F812F3CF8C85843059F01E870D871A8EA3
:10525000198E20E0A80162E00E94651A81E001C079
:1052600080E0DF91CF911F910F91FF9008950F93F0
:105270001F93CF93DF93CDB7DEB728970FB6F8947F
:10528000DEBF0FBECDBF8C01DC01ED91FC9102842D
:10529000F385E02D0995F80184850E94601C18169D
:1052A000190644F548E050E0BE016F5F7F4FD8011A
:1052B0001C968C910E94001C18161906ECF4BE0175
:1052C0006F5F7F4FC8010F960E94512C8D8190E037
:1052D000982F88272E81820F911DF801968B858B40
:1052E0008F8190E0982F88272885820F911D928FBB
:1052F000818F02C080E090E028960FB6F894DEBF60
:105300000FBECDBFDF91CF911F910F910895FC018A
:105310001382128248EE53E060E070E044835583CC
:10532000668377838DED92E09183808384E0848728
:10533000CF010F960C942B2CCF92DF92EF92FF921D
:105340000F931F93CF93DF93CDB7DEB7AF970FB611
:10535000F894DEBF0FBECDBF7C018B016A01CE0188
:1053600001960E942B2CCE0109960E948729CE011E
:105370008A960E942B2C69ED75E0CE0184960E94DE
:105380009D24BE016C5D7F4FCE0101960E943B20A3
:10539000AE01465D5F4FB801CE0101960E94A0228A
:1053A00081309105C1F4D701ED91FC910088F1891C
:1053B000E02D81E193E09DA38CA30CA51DA52EA556
:1053C0003FA50EA31FA328A739A7A601BE016C5DA8
:1053D0007F4FC7010995AF960FB6F894DEBF0FBE99
:1053E000CDBFDF91CF911F910F91FF90EF90DF9094
:1053F000CF9008950F9300E020E040E060E08BEF55
:1054000095E00E94352C0F910895FC01818D228D2D
:1054100090E0805C9F4F821B910960E470E00E94E5
:10542000C4310895FC01918D828D981731F0828DE1
:10543000E80FF11D858D90E008958FEF9FEF08959F
:10544000FC01918D828D981761F0828DDF01A80F8C
:10545000B11D5D968C91928D9F5F9F73928F90E0AE
:1054600008958FEF9FEF089584EA9BE2892B49F01E
:1054700080E090E0892B29F00E94A42B81110C94EC
:1054800000000895FC01848DDF01A80FB11DA35A0F
:10549000BF4F2C91848D90E001968F739927848F54
:1054A000A689B7892C93A089B1898C9180648C934B
:1054B000938D848D981306C00288F389E02D808136
:1054C0008F7D80830895CF93DF93EC01888D8823AF
:1054D000C9F0EA89FB89808185FD05C0A889B98961
:1054E0008C9186FD0FC00FB607FCF5CF808185FF3C
:1054F000F2CFA889B9898C9185FFEDCFCE010E94AA
:10550000422AE7CFDF91CF910895CF92DF92FF92A9
:105510000F931F93CF93DF931F92CDB7DEB76C012C
:10552000DC015B969C915B975C968C915C979813E1
:1055300007C05096ED91FC915197808185FD32C056
:10554000F601038D10E00F5F1F4F0F731127F02E30
:10555000F601848DF81211C00FB607FCF9CFD60101
:105560005096ED91FC915197808185FFF1CFC60156
:1055700069830E94422A6981EBCF838DE80FF11D78
:10558000E35AFF4F6083D6015B960C935B9752966C
:10559000ED91FC91539780818062808381E05896E1
:1055A0008C930DC0D6015696ED91FC915797608370
:1055B0005096ED91FC91519780818064808381E0C9
:1055C00090E00F90DF91CF911F910F91FF90DF90AE
:1055D000CF900895BF92CF92DF92EF92FF92CF9338
:1055E000DF93EC016A017B01B22EE889F98982E040
:1055F0008083411581EE580761057105A1F060E0D7
:1056000079E08DE390E0A70196010E94D831215006
:105610003109410951095695479537952795211527
:1056200080E1380798F0E889F989108260E874E829
:105630008EE190E0A70196010E94D83121503109F6
:10564000410951095695479537952795EC85FD8574
:105650003083EE85FF852083188EEC89FD89B0822A
:10566000EA89FB89808180618083EA89FB89808166
:1056700088608083EA89FB89808180688083EA89E9
:10568000FB8980818F7D8083DF91CF91FF90EF90A8
:10569000DF90CF90BF9008951F920F920FB60F9298
:1056A00011242F938F939F93EF93FF93E091110613
:1056B000F09112068081E0911706F091180682FDA4
:1056C00012C0908180911A068F5F8F7320911B0604
:1056D000821751F0E0911A06F0E0EF5FF94F958FD5
:1056E00080931A0601C08081FF91EF919F918F9165
:1056F0002F910F900FBE0F901F9018951F920F9231
:105700000FB60F9211242F933F934F935F936F9394
:105710007F938F939F93AF93BF93EF93FF9381E01A
:1057200096E00E94422AFF91EF91BF91AF919F9125
:105730008F917F916F915F914F913F912F910F903A
:105740000FBE0F901F90189581E096E00E94052AE9
:1057500021E0892B09F420E0822F0895109204069D
:105760001092030688EE93E0A0E0B0E08093050677
:1057700090930606A0930706B093080681E093E095
:10578000909302068093010685EC90E090930E06BC
:1057900080930D0684EC90E09093100680930F06A2
:1057A00080EC90E0909312068093110681EC90E0DB
:1057B000909314068093130682EC90E09093160663
:1057C0008093150686EC90E0909318068093170658
:1057D00010921A0610921B0610921C0610921D06BB
:1057E0000895AF92BF92CF92DF92EF92FF920F9304
:1057F0001F93CF93DF936C017B01C0E0D0E000E00A
:1058000010E0F601EC0FFD1F4AE050E06281C70195
:105810000E94482D5C016EE2C7010E94A32C8A0DF4
:105820009B1D080F191F2196C330D10551F74AE07F
:1058300050E0F6016581C7010E94482D800F911F3D
:10584000DF91CF911F910F91FF90EF90DF90CF905C
:10585000BF90AF90089521E133E0FC0131832083B4
:10586000128213821482158208950F93FC0181E144
:1058700093E09183808362834383248305830F9124
:10588000089521E133E0FC0131832083FB01408155
:10589000518162817381FC014283538364837583E8
:1058A0000895FB014081518162817381FC01428333
:1058B000538364837583089581E193E090939F06F9
:1058C00080939E061092A0061092A1061092A20646
:1058D0001092A3060895CF92DF92EF92FF920F935A
:1058E0001F93CF93DF936C017A01EB01E60EF71E55
:1058F00000E010E0CE15DF0561F06991D601ED9171
:10590000FC910190F081E02DC6010995080F191F47
:10591000F1CFC801DF91CF911F910F91FF90EF90D0
:10592000DF90CF900895DC01ED91FC91DB0114969E
:105930004D915C9115976D917C910280F381E02DE2
:1059400009940C94A713DC01ED91FC910190F08176
:10595000E02D09940F931F93CF93DF93EC016DE03B
:105960000E94A32C8C016AE0CE010E94A32C800F20
:10597000911FDF91CF911F910F9108950F931F9366
:10598000CF93DF93EC010E94932C8C01CE010E94F7
:10599000AA2C800F911FDF91CF911F910F91089535
:1059A0000F931F93CF93DF93EC010E94A7138C01F9
:1059B000CE010E94AA2C800F911FDF91CF911F91E1
:1059C0000F9108958F929F92AF92BF92CF92DF92E4
:1059D000EF92FF920F931F93CF93DF93CDB7DEB774
:1059E000A1970FB6F894DEBF0FBECDBF7C01C42EC9
:1059F000E52FCB01D22E19A221E02D1510F02AE0BF
:105A0000D22E8E010F5D1F4F8D2C912CA12CB12C0D
:105A10006C2D7E2FA50194010E94D8318C2DD29E31
:105A200080191124015011098A3014F4805D01C0DD
:105A3000895CF8018083211531054105510521F06C
:105A4000C22EE32FCA01E4CFB801C7010E94A713F9
:105A5000A1960FB6F894DEBF0FBECDBFDF91CF91F8
:105A60001F910F91FF90EF90DF90CF90BF90AF907C
:105A70009F908F9008952115310541F4DC01ED913F
:105A8000FC910190F081E02D642F09940C94E22C9C
:105A90009A01462F50E060E070E00C943B2D0F938C
:105AA0001F93CF93DF93EC019A01462F50E060E003
:105AB00070E00E943B2D8C01CE010E94AA2C800F29
:105AC000911FDF91CF911F910F910895FC0180816B
:105AD00091810C94A432CF93DF93EC01888199815A
